:020000040800F2
:10000000001800203D5E0008F9580008FD5800085F
:1000100000000000000000000000000000000000E0
:10002000000000000000000000000000015900086E
:1000300000000000000000000559000809590008F0
:10004000AD5E0008AD5E0008AD5E0008AD5E000864
:10005000AD5E0008AD5E0008AD5E0008AD5E000854
:10006000AD5E0008AD5E0008AD5E0008AD5E000844
:10007000AD5E00081559000825590008AD5E00085E
:10008000AD5E00080000000000000000AD5E00084A
:1000900000000000AD5E0008AD5E0008AD5E000827
:1000A00000000000AD5E0008AD5E0008AD5E000817
:1000B000AD5E000800000000AD5E00083559000884
:1000C00010B5064C2378002B07D1054B002B02D02E
:1000D000044800E000BF0123237010BD5C01002034
:1000E00000000000105F0008084B10B5002B03D083
:1000F0000749084800E000BF07480368002B00D10B
:1001000010BD064B002BFBD09847F9E7000000001C
:1001100060010020105F00085C010020000000006A
:10012000002243088B4274D303098B425FD3030A36
:100130008B4244D3030B8B4228D3030C8B420DD349
:10014000FF22090212BA030C8B4202D312120902D7
:1001500065D0030B8B4219D300E0090AC30B8B4215
:1001600001D3CB03C01A5241830B8B4201D38B03C3
:10017000C01A5241430B8B4201D34B03C01A524168
:10018000030B8B4201D30B03C01A5241C30A8B42AB
:1001900001D3CB02C01A5241830A8B4201D38B0296
:1001A000C01A5241430A8B4201D34B02C01A52413A
:1001B000030A8B4201D30B02C01A5241CDD2C309AC
:1001C0008B4201D3CB01C01A524183098B4201D328
:1001D0008B01C01A524143098B4201D34B01C01A13
:1001E000524103098B4201D30B01C01A5241C3088B
:1001F0008B4201D3CB00C01A524183088B4201D3FA
:100200008B00C01A524143088B4201D34B00C01AE5
:100210005241411A00D20146524110467047FFE751
:1002200001B5002000F0F0F802BDC0460029F7D06B
:1002300076E7704703460B437FD4002243088B4286
:1002400074D303098B425FD3030A8B4244D3030B5D
:100250008B4228D3030C8B420DD3FF22090212BA22
:10026000030C8B4202D31212090265D0030B8B429E
:1002700019D300E0090AC30B8B4201D3CB03C01A88
:100280005241830B8B4201D38B03C01A5241430B63
:100290008B4201D34B03C01A5241030B8B4201D353
:1002A0000B03C01A5241C30A8B4201D3CB02C01ABE
:1002B0005241830A8B4201D38B02C01A5241430A36
:1002C0008B4201D34B02C01A5241030A8B4201D325
:1002D0000B02C01A5241CDD2C3098B4201D3CB01CC
:1002E000C01A524183098B4201D38B01C01A52417B
:1002F00043098B4201D34B01C01A524103098B427F
:1003000001D30B01C01A5241C3088B4201D3CB0069
:10031000C01A524183088B4201D38B00C01A52414C
:1003200043088B4201D34B00C01A5241411A00D2FC
:1003300001465241104670475DE0CA0F00D0494265
:10034000031000D34042534000229C4603098B42D5
:100350002DD3030A8B4212D3FC22890112BA030A5D
:100360008B420CD3890192118B4208D389019211DF
:100370008B4204D389013AD0921100E08909C30964
:100380008B4201D3CB01C01A524183098B4201D366
:100390008B01C01A524143098B4201D34B01C01A51
:1003A000524103098B4201D30B01C01A5241C308C9
:1003B0008B4201D3CB00C01A524183088B4201D338
:1003C0008B00C01A5241D9D243088B4201D34B0053
:1003D000C01A5241411A00D20146634652415B1095
:1003E000104601D34042002B00D549427047634676
:1003F0005B1000D3404201B5002000F005F802BDBB
:100400000029F8D016E770477047C04610B50400C1
:1004100002F032FEFA218900FFF782FE00F0A6F911
:10042000012000222100404200F062F9002010BDAE
:100430001023064A10B5116800200B431360FFF724
:10044000E5FF05F04BF9002010BDC046002002403A
:10045000024A1368013313607047C0469C030020B2
:10046000014B18687047C0469C03002030B583B02C
:100470000190FFF7F5FF019C0500631C5A1E934194
:10048000E418FFF7EDFF401BA042FAD303B030BDE4
:10049000F8B5041E00D17FE0436C002B66D0636C7E
:1004A000DB065DD4042523689A68154058D1616C39
:1004B000474A0A4002210A4362649A6801310A40AD
:1004C000012A59D01821DA688A43A1680A43DA6000
:1004D0001A696168920092080A431A61D9683D4A14
:1004E000276A0A40DA60A2697E039103E269D203B7
:1004F0000A43616B0139481E81410803E1680A43E0
:1005000021693243022959D0216B49000A43616AAB
:1005100002432A4301294BD0C220A16AFF30814205
:1005200002D0E06A01430A438020D96840051143A4
:10053000D960A16B814226D0481E062823D9D968EC
:10054000254B0B409A4229D01222636C0120934321
:10055000023A134363640123A26C1343A36404E0CF
:1005600010230120626C13436364F8BD402283644E
:10057000835405F0DDF892E719680A42AED1DA68D3
:1005800012049FD5AAE7072558692940A843586156
:10059000586901435961D2E70120E6E700230322AD
:1005A000A364636C00209343023A13436364DCE763
:1005B000002F05D1802149020A43ADE70425A3E7B6
:1005C0002020656C28436064A06C0143A164A3E70C
:1005D000FDFEFFFF1902FEFFE7FF3F83002370B51A
:1005E00082B001934033C25C04000220012A3CD057
:1005F0000122A06BE25423689D686D072DD4354D10
:100600004E68AE4233D00E689D6AB2402A439A6269
:100610008022520590420FD0013806280CD90720BD
:100620008A68596901408A4206D05969024081436B
:10063000596159690A435A613300103B022B29D88A
:10064000254A1368102E27D08022112E3CD0520448
:100650001343214A0020136004E020230120626C30
:100660001343636400224023E25402B070BD096862
:10067000986A8A40904398620B00103B022B09D87D
:10068000154B1A68102921D0112921D0134B134082
:10069000114A13600020E5E7802109040B43136031
:1006A0000F4B10491868FFF73BFD830018184000F6
:1006B0000190019B002BEDD0019B013B0193019B1D
:1006C000002BF9D10020CDE7D203C1E7064BDEE7CE
:1006D000064BDCE70110000008270140FFFFFFFE8A
:1006E0001401002040420F00FFFF7FFFFFFFBFFF0C
:1006F00070B5002814DB032483082040FC34260056
:10070000134AC0259446C00089018640214081409B
:100710009B006344AD005A59B2431143595170BD17
:1007200003240F23C0B203402040FC342500094AB3
:10073000C00094468901854021408140083B9B08C8
:100740009B006344DA69AA431143D961E7E7C046D5
:1007500000E100E000ED00E01F2318401E3B834055
:10076000014A13607047C04600E100E00A4A431E98
:10077000012093420ED8C020084A094953600B6AF1
:1007800000061B021B0A03430B6200230020936038
:10079000073313607047C046FFFFFF0010E000E022
:1007A00000ED00E0042805D00421054A13688B43BE
:1007B00013607047024B1A6810431860F9E7C0468F
:1007C00010E000E07047C04610B5FFF7FBFF10BD1A
:1007D000F0B55F4656464D464446F0B40B6885B0CA
:1007E0008B469C460022002B00D1B2E0604BE146D4
:1007F0009A46604B984665E0016856008C46032196
:10080000B1406446C9430C40A44603241C40B44094
:10081000674627430760019F013F012F7CD95C4653
:10082000C5682940A568B5402943C16080214905B4
:100830000B4243D051460124896903272143544682
:10084000A161A16901240F2621404B4C1740A44609
:10085000BF00BE4090240391039991088900614430
:100860008D68E405B543A04200D179E0434EB04223
:1008700000D177E0424EB04200D176E00526BE407E
:1008800035438D604146009C0968E543DC035DD437
:1008900029404446216061689C0354D42940444661
:1008A0006160A168DC024BD429404446A160E16844
:1008B0009B0242D429400C004346DC604B46013287
:1008C000D34046D001254C4695402C400094F5D0AD
:1008D0005B465B6810211F008F4339000197022F90
:1008E0008AD10F240531114089008C40D708BF0000
:1008F000C7193E6AA6435C4624698C4021003143F7
:10090000396203215600B1400324C9431C40B4405E
:1009100007680F40274307605C46E4688768B44077
:100920000F402743012487604768AF433D001F09FC
:10093000274097403D43456071E7009C0C43BBE76F
:10094000009C2143B1E7009C2143A8E7009C214380
:100950009FE705B03CBC90469946A246AB46F0BD29
:1009600000268DE70126BE408AE70226BE4087E7C3
:100970000010024000040140000001400004004853
:1009800000080048002A01D1816270478161FCE7BC
:10099000F0B510234746040080B40D00160002276E
:1009A000984622686B1C2DD10221102093691942B0
:1009B0002BD193691842F9D0202193691942FCD0B8
:1009C0001023D3611033D36193699B0701D50023B2
:1009D0009362012391690B4202D191690B439361A8
:1009E00051681E4B0B405360042363642022412353
:1009F000E254002301202232A354023AA35404BC3F
:100A00009046F0BD93691F4201D00020F7E74146B0
:100A10009369194213D1002D04D0FFF721FD801BEB
:100A20008542BED22022636C0320134363644123BA
:100A3000E25400232232A354023AA354DFE72027D2
:100A400007E0002DD2D0FFF70BFD801B8542CDD3F0
:100A5000226893691F42F4D0B2E7C04600E800FE66
:100A6000F0B54746040080B40D001600002945D0BB
:100A700010232027984604E0FFF7F2FC801B8542F4
:100A800043D3226893691F424CD14146936919426E
:100A9000F2D020276B1C25D1202193691942FCD06C
:100AA0001023D3611033D36193699B0701D50023D1
:100AB0009362012391690B4202D191690B439361C7
:100AC0005168194B0B405360042363642022412377
:100AD000E254002301202232A354023AA35404BC5E
:100AE0009046F0BD93691F42DAD1002DEED0FFF79A
:100AF000B7FC801B8542E9D32268CBE70268936983
:100B00009B060FD49369DB06C3D42022636C0320B9
:100B1000134363644123E25400232232A354023A74
:100B2000A354DCE70020DAE700E800FEF8B5150082
:100B3000026804001E005068244B89050340802091
:100B400080010343890D0B43F1B20904194351603D
:100B50002000079A0699FFF71BFF071E17D1012EE9
:100B600009D023682A0A9A620699079A2000FFF79B
:100B70000FFF00280BD12168EDB28D624025069B46
:100B800001330BD140228B691A42FCD004E0636C24
:100B90000127042B00D003273800F8BD8B691D42C4
:100BA000FAD1069B002B08D0FFF75AFC079BC01A0E
:100BB000069B834201D32168E2E720224123E254CD
:100BC00000232232A354023AA354E4E7009800FC25
:100BD000F8B51E00040015000268254B5068890511
:100BE00003402448890D03430B43F1B20904194320
:100BF00051602000079A0699FFF7CAFE071E17D119
:100C0000012E09D023682A0A9A620699079A2000C1
:100C1000FFF7BEFE00280BD12168EDB28D62802562
:100C2000069B01330BD180228B691A42FCD004E071
:100C3000636C0127042B00D003273800F8BD8B69B3
:100C40001D42FAD1069B002B08D0FFF709FC079B39
:100C5000C01A069B834201D32168E2E72022412388
:100C6000E25400232232A354023AA354E4E7C046DC
:100C7000009800FC0020000110B5041E4ED0412356
:100C8000C35CDBB2002B3ED0242241230121E2547D
:100C900023681A688A431A606168214A0A401A6107
:100CA0009968204A0A40E1689A60012930D084227C
:100CB000A068120202439A60022920D05A681A4999
:100CC00000200A435A60D968164A0A40DA6021694E
:100CD00062691143A26912020A43DA60216AE26979
:100CE0000A431A60012219680A431A60202100236E
:100CF00041226364A15401322363A35410BD8022B6
:100D000012015A60DAE74022835404F027FDBBE762
:100D10008022A16812020A439A60CFE70120EDE722
:100D2000FFFFFFF0FF7FFFFF00800002F0B54D46A0
:100D300044465F465646F0B483B099460CAB20CB90
:100D400004001E884123C35C0F0090460220202B24
:100D500006D003B03CBC90469946A246AB46F0BDD7
:100D6000002D3DD0002E3BD04023E25C012AF0D084
:100D70000122E254FFF774FB80231B0282469B464C
:100D800005E0FFF76DFB5346C01A19282AD85A46CA
:100D900023689B6913405B45F3D021224123E25431
:100DA00001331F32E254002363649B46636353465E
:100DB00001930E9B6562009366854B46424639005F
:100DC0002000FFF705FF002816D0636C042B04D029
:100DD00040235A460320E254BBE75A463C33E254D0
:100DE0000120B6E720224123E25400232232A354FB
:100DF000023AA3540320ACE7638DFF2B63D9FF2392
:100E0000226823855168434BBF050B404249BF0D03
:100E10000B433B435360FF231B04802598463D4E04
:100E200002E0638D002B60D052460E992000FFF740
:100E3000AFFD002842D1636A2268591C61621B78A9
:100E40009362638D013B9BB26385238D013B9BB213
:100E50002385002BE5D1638D002BE2D00E9B01335F
:100E60000ED193691D42FCD0638DFF2B17D9FF2350
:100E700023855368284933400B433B435360D0E7F5
:100E800093691D42F0D10E9B002BABD0FFF7E8FA1F
:100E90005346C01A0E9B8342A4D32268DFE7404624
:100EA000638D51689BB223851B0418408023314019
:100EB0009B040B4303433B435360B2E7636C042B37
:100EC0008ED0032045E72068618D124A436889B2BD
:100ED0001A40802321859B04C9B2BF05090413432E
:100EE000BF0D0B433B43436095E752460E992000EC
:100EF000FFF7B6FD0028E1D120212368074AD96118
:100F00005D682A405A604123E1540133E054023BBA
:100F1000E0541EE7009800FC0000FF0100E800FE1E
:100F2000F0B54D4644465F465646F0B483B0994608
:100F30000CAB20CB04001E884123C35C0F009046FD
:100F40000220202B06D003B03CBC90469946A24616
:100F5000AB46F0BD002D3DD0002E3BD04023E25CDF
:100F6000012AF0D00122E254FFF77AFA80231B0213
:100F700082469B4605E0FFF773FA5346C01A1928CC
:100F800037D85A4623689B6913405B45F3D0222229
:100F90004123E25401331E32E254002363649B4632
:100FA0006363534601930E9B6562009366854B46CF
:100FB000424639002000FFF7B9FD002823D0636CBA
:100FC000042B04D040235A460320E254BBE75A4680
:100FD0003C33E2540120B6E793691E425BD10E9B7D
:100FE000002B06D0FFF73CFA5346C01A0E9B8342F3
:100FF0004BD220224123E25400232232A354023A4E
:10100000A35403209FE7638DFF2B61D9FF23226840
:1010100023855168444BBF050B404449BF0D0B432A
:101020003B435360FF23042580261B0498460E9BF8
:1010300001331AD193691D42FCD0636A526A591C6C
:1010400061621A70238D628D013B013A9BB292B2AC
:1010500023856285002B02D1638D002B14D1638D13
:10106000002B46D022680E9BE2E793691D42E4D133
:101070000E9B002BBDD0FFF7F3F95346C01A0E9B11
:101080008342B6D32268D3E70E9B22680133A3D1F3
:1010900093691E42FCD0638DFF2B09D9FF23516851
:1010A0002385214B0B4022490B433B435360D6E73A
:1010B0004146608D536880B22085000408401A497B
:1010C000194080239B040B4303433B435360C6E713
:1010D0002268608D1449536880B21940154B2085F1
:1010E000C0B2BF0500040B43BF0D03433B43536035
:1010F00098E752460E992000FFF7B2FC002805D071
:10110000636C042B00D165E703201CE720212368D2
:10111000094AD9615D682A405A604123E15401338C
:10112000E054023BE0540EE7009800FC0024FF016D
:101130000000FF010024000200E800FEF0B5474671
:10114000412480B4035D0222DBB2202B03D01000C7
:1011500004BC9046F0BD4026855D012DF7D00125E9
:10116000223202550268A8461768AF431760176815
:10117000BC466546074F2F40454617601768394300
:10118000116011680D43156003550023002283553B
:10119000DDE7C046FFEFFFFFF0B54746412480B4CE
:1011A000035D0222DBB2202B03D0100004BC90466A
:1011B000F0BD4027C55D012DF7D001262232025532
:1011C0000268B04615680902B54315601568AC465B
:1011D0006646064D354046462943116011680E4368
:1011E0001660035500230022C355DEE7FFF0FFFF22
:1011F00070B5041E00D11BE1EA23FF33C35CDBB2F0
:10120000002B00D10EE1EA2303206268FF33E05493
:10121000002A00D1F1E0292301212825E1540023EF
:101220006355033563556363A363E363012A00D801
:1012300000E11A356155013D61550335635523655C
:101240006365A365022A53D002261A356155013D14
:10125000665503356355E36623676367032A47D002
:101260001A356155013D60557F20235409302350C4
:101270000430235004302350042A39D0093021543B
:10128000783D01382554033023540930235004306D
:10129000235004302350052A2AD009302154013527
:1012A000013825540330235409302350043023508F
:1012B00004302350062A1BD009302154013501384F
:1012C0002554033023540930235004302350043074
:1012D0002350072A0CD009302154EB31E6386054F2
:1012E0000331635409316350043163500431635056
:1012F0000A210023FF316354013963540C21FF316B
:101300006354093163500431635004316350262122
:101310000120FF316354013960542821FF316354A7
:10132000093163500431635004316350022A64D0A0
:1013300042210220FF316354013960544421FF31BE
:101340006354093163500431635004316350032AFC
:1013500053D05E21FF316354013001396054602164
:10136000FF316354093163500431635004316350D9
:10137000042A42D07A21FF3163540130013960548C
:101380007C21FF31635409316350043163500431CF
:101390006350052A31D09621FF3163540130013961
:1013A00060549821FF316354093163500431635014
:1013B00004316350062A20D0B221FF31635401303A
:1013C00001396054B421FF31635409316350043151
:1013D000635004316350072A0FD0CE22BE39FF324A
:1013E000A354FF39013AA154D022FF32A354093249
:1013F000A3500432A3500432A35040220121236899
:10140000442099520021995219520C3019520D4919
:101410000020995224230022E254EA230122FF33C0
:10142000E25470BDF4225200835404F045FBEAE616
:101430000120F6E70A22FF32A354013AA3540C22FA
:10144000D3E7C04600BFFFFF5822802301681B027C
:10145000885A03438B5200207047C046F42210B5CF
:101460005200845C03000220012C0AD001389854F9
:10147000002907D024229954F42200210020520090
:10148000995410BD9D3A18688031FF3A8152F3E7B4
:10149000F0B547464DB280B4002D5DDBCC00641A38
:1014A000A4000934FF3404192170F421ED0FE37016
:1014B0006570E2604900455C0223012D48D0013B84
:1014C0004354E378012B5BD0002B00D12FE1022B9A
:1014D00000D123E1032B47D0036821789F4E8D0074
:1014E0005D192F88B04637409D4E314339432980DE
:1014F000A17A002950D16178002900D1D7E050228B
:10150000995A22780125D2009A1852188021C900D0
:101510008C46A1886244A9431180227892009A18CF
:1015200011884D0608D546460E408E490E4316805A
:10153000227892009A18118820238B4E0E405E402C
:10154000874B1E431680F42300225B00C254002305
:10155000180004BC9046F0BD7F242140CC00641AE2
:10156000A400283404199FE72178036889005918DA
:101570000E887E4D3540C026F60035430D80ACE721
:1015800021780368890059180E88784D35408026E7
:10159000F60035430D80A0E7502722787449920069
:1015A0009A1815882940734D294311802278D95BF8
:1015B000D20052188021C9008C460125E188D2183A
:1015C0006244A94311802278D95BD200D218521804
:1015D00069498C4621896244A94311806278002AB6
:1015E00033D1227892009A1811884D0408D54646C6
:1015F0000E4062490E431680227892009A18118894
:101600004D0608D5554E3140564E31431180227853
:1016100092009A181188514E3140524E3143118038
:101620002178574A890059180D882A40C025AD01F4
:101630006A404B4D2A430A8022784B4992009B18FE
:101640001A880A402A431A807DE7227892009A1865
:101650001588690408D5464648492E400E43168031
:10166000227892009A181588690608D53B4E2E40BC
:101670003C4D2E431680227892009A1815883749DF
:101680000D402E003D490E431680227836499200C7
:101690009A1815882940324D2943118022783849FB
:1016A00092009B181A880A402A431A804BE7502759
:1016B0002178DD5BC90049192F4D0126AC46A5886C
:1016C000C9186144B5430D802178DD5BC900491913
:1016D0002C4DAC466144C9183E2A34D95509D2066E
:1016E00038D0294AAD0215430D80227892009A180D
:1016F0001588690408D519490D4020490D43158006
:10170000227892009A1815882B001D490B40C021A1
:1017100089014B4012490B43138014E72178036879
:10172000890059180E88114D35400D80D5E6217875
:101730000368890059180E880C4D35408026B60084
:1017400035430D80C9E65508164200D00135AD027B
:101750000D80CAE7013DADB2C3E7C0460F0F0000E0
:101760008080FFFFC080FFFFBF8FFFFF8F89FFFFDB
:101770000F0E00008081FFFF0404000080C0FFFF07
:101780008FBFFFFF060400000080FFFF4AB230B5A4
:10179000002A62DBCB005B1A9B000933FF33C318BE
:1017A0001970F421D20F5A704900445C0222012CB6
:1017B00051D0013A42549A7A002A14D15A780568D5
:1017C000002A52D01A789200AA181488610608D507
:1017D00049490C4049490C4314801A789200AA18D0
:1017E0001488474951E05A780468002A53D01A787F
:1017F0009200A21811884D0408D53F4D2940414D53
:10180000294311801A789200A21811884D0608D534
:10181000394D2940394D294311801A789200A21878
:101820001188354D2940374D294311801A783449A4
:101830009200A21815882940334D294311801B7846
:1018400032499B00E3181A880A402A431A80F4237D
:1018500000225B00C254100030BD7F231940CB0032
:101860005B1A9B002833C3189AE71A789200AA18CB
:101870001488610408D520490C4022490C43148087
:101880001A789200AA181488204923000B401E4998
:101890000B431380DBE71A789200A21811884D04DD
:1018A00008D5154D2940174D294311801A7892000B
:1018B000A21811884D0608D50F4D29400F4D294318
:1018C00011801A789200A21811880B4D29400B4DF7
:1018D000294311801A780D499200A21815882940D1
:1018E000094D294311801B7805499B00E3181A888C
:1018F0000A402A431A80AAE70F0F0000C080FFFFAA
:10190000BF8FFFFF80C0FFFF8080FFFF8FBFFFFF03
:10191000F0B57F244E46454657462140E0B4CD0001
:101920006C1AA400041926001936FF363260220012
:101930001D32FF3213600022B2600F3E327022006F
:101940000932FF321534FF341170226882B000244E
:10195000934201D99C1A13006A1A92008218160049
:101960001D36FF36346014001334FF342478002C05
:101970002FD1502604680932FF32A75B16786C4AD3
:10198000F600F619A218B6183E2B00D885E05A09C1
:1019900092B2DB0601D1013A92B2664B92021A432F
:1019A0003280691A890040180930FF300278624B92
:1019B0009200A218118800200B40C02189014B40E1
:1019C0005E490B43138002B01CBC90469946A24668
:1019D000F0BD16000A36FF363778B0460468002F8F
:1019E00033D150260932FF32A75B1678544AF600ED
:1019F000F619B146A21891443E2B57D91F271F4014
:101A0000BC4666465A0992B21700002E01D1571EF5
:101A1000BFB2484EBF0237434E4637806F1ABF00F1
:101A2000C7193E000A36FF363678002E68D150239B
:101A30000937FF373E78E35AF600F6183C4BE318B7
:101A4000F6186346002BA6D0A7E7012FA9D1502690
:101A5000B146A65BB44684267600B246924452460E
:101A60001278374ED20012196244B4466244138091
:101A700042461678002E43D156464A463678A25A38
:101A8000F600B6182A4AA218B6183E2B4BD91F22C8
:101A90001A405B0994469AB2D3E75A0892B2DB0720
:101AA00001D5013292B2920232807AE701275A08B8
:101AB00092B292461F40944604D0561C6A46D68085
:101AC000B6B2B44666464A46B60216806E1AB600EC
:101AD000B046804446460A36FF363678002E0FD18F
:101AE0005023E35A52469C4643460933FF331E783F
:101AF0000F4BF6006644E318F618002FD1D1D2E759
:101B0000012E00D04DE75022A65A6A1A9200821880
:101B10000932FF321278D200A2189219044EB4464C
:101B2000624413803DE71F405B089AB2E5E7C04678
:101B3000060400000080FFFF8FBFFFFF8080FFFFD3
:101B4000020400007F231940CB00591A8900401875
:101B50002130FF3000887047F0B5564644465F4656
:101B60004D46F0B47F242140CC0083B00094641A29
:101B7000A4000419A2630022226422000126293253
:101B8000E363013A56701170626B0024934201D9ED
:101B90009C1A1300009A521A92008218D4631400FF
:101BA00032342478002C00D074E01F0405683F0C08
:101BB0000137AC467D082F0001958025966B928DEC
:101BC000ED0062449346A846D844002F38D0351D16
:101BD000A946424625004F46BA426541A74A924669
:101BE0005A46524496426441220044462A43032501
:101BF00034432C4065426541154200D108E1019A09
:101C00000C2A00D804E1941E6408671C7A009346ED
:101C1000C1460022950075590132AA464D465446E8
:101C200010C5A9469742F5D85A46019C5200B618ED
:101C300042445C4504D07478377824023C431480D5
:101C400050226446A45A009AE346521A920082181F
:101C500028321278D2001219894C6244A0464244BC
:101C60001380009B591A89004018283003780020FF
:101C70009B005B441A881C00824B13403022534067
:101C8000814A1343238003B03CBC90469946A24648
:101C9000AB46F0BD1600283636780468B7003F5BC7
:101CA0002932A34612787C0665D5002A7AD0012A0B
:101CB00000D1D7E0009A521A92008218168E802422
:101CC000E4002700009A1B04521A92001B0C821891
:101CD00001335F44926B5B08BF19002B34D03C1D6D
:101CE000A446002665463400AA427441A446141D49
:101CF000A7427641644626430C24A4469C45A44151
:101D00006442344276D016003E43B40772D19E1E20
:101D10007608741CA0466400A24600241600A4465F
:101D20003468B51AEC510124A146CC440436E04590
:101D3000F6D8544666009219BF19534504D053781B
:101D400016781B0233433B80009B5B1A9B00C31831
:101D50001A0029321278002A41D0012A00D080E7E7
:101D600028331B78494A9B005B441E883240484E0A
:101D700032431A8075E7002A29D15C465032A25AB4
:101D8000F600B6183E4A5A44B6183E2B4ED95A09A8
:101D900092B2DC0601D1013A92B23E4F92023A432E
:101DA000328016E05C465032A25AF600B6183A4A23
:101DB0005A44B6183E2B42D95A0992B2DC0601D1D8
:101DC000013A92B2334F92023A43328072E7012ACB
:101DD0003ED0009A521A92008218D68D6FE72833AF
:101DE0001B782A4A9B005B441E8832402B4E3243AC
:101DF0001A8036E716003478013BA04645467478D1
:101E000024022543B41AE5530236002BF3D19BE795
:101E10004246757834782D022C431480019C02369A
:101E2000013C01940232002CF3D109E75A0892B226
:101E3000DC0701D5013292B292023280C9E75A081A
:101E400092B2DC0701D5013292B29202328031E7C0
:101E50005C464F32A25AF600B618094A5E44B218E0
:101E60001380B6E75C464F32A25A0B4CF600A446EC
:101E7000B2185A44624413801CE7C04604040000B0
:101E800002040000BF8FFFFF8080FFFF0F0F0000E4
:101E900080C0FFFF0080FFFF06040000C080FFFF3E
:101EA000F0B54D465F46564644464422F0B40368BA
:101EB00085B09A5A050012B2002A00DA71E0442275
:101EC000995A49054AD44422995A490403D5985A43
:101ED000AE49014099524422995A890403D5985A2F
:101EE000AB490140995244241A5BD20426D44422BF
:101EF000995A09050FD5985AA6490140995240218F
:101F000008205C5A2043585204205C5A20435852FF
:101F10009A5AD2043ED54422995A890531D4442292
:101F2000995AC90503D5985A9B490140995205B061
:101F30003CBC90469946A246AB46F0BD40220420E8
:101F4000995A8143995295492800995203F01EFEEF
:101F50002B68934A195B0A401A53C8E7985A91496B
:101F600001409952280003F0F3FDF4225200AB5CCB
:101F7000012B14D04C2180202B6858520021A954E9
:101F8000A1E7985A884901409952280003F0D8FDEA
:101F90002B68C4E7280003F0E7FD2B68BBE72B683C
:101FA00091E7002202A9CA8044229A5A02A992B259
:101FB0008A8012B2002A00DB81E702AA94880F22ED
:101FC000144047D102AA9288D20600D459E11A8857
:101FD00002A9CA80C988090500D4F1E05022995AA3
:101FE000B832AA5C2F00D20052187049D2188C4621
:101FF00062441288ED37960594462A000932B60DE0
:10200000FF3296619288FF37D3188022D200904623
:1020100076084344002E0ED039001C003000228880
:1020200001380A70120A4A70023402310028F6D1CF
:1020300076009B19BF196246D20701D51B883B70F9
:102040002A685B4B118828000B40138003F054FD75
:102050002B68A9E7A6009919088802AAD080D2881F
:1020600012B2002A00DA39E1802102AAD288114294
:102070009AD09E1931884F4A0A403280E20000927D
:10208000121B9200AA1810003230007880460028F7
:1020900000D09AE150301F5A47481E1810002830CF
:1020A0000078C000C019805B8005800D10644FD09F
:1020B0008021C9008C464149976B89464146928DE3
:1020C0000130D21894444A44974249414008894615
:1020D0000190414660463A1D904249410A004946F6
:1020E0000A436146394388460321894641464846AA
:1020F0000140080041424141114200D1E1E2019812
:102100000C2800D8DDE2821E52080132904681463A
:1021100040469846009B520093469A4600226346EA
:1021200091007958013202C39042F9D85246009288
:102130005A464346B8464946520090446244170006
:10214000594505D0424610785278120202433A802F
:1021500050229A5A009B28001C1BA4002C19210015
:1021600028310B78DB009B199A5AA36B92059C4689
:10217000920D2264E36B6244A2630978002B00D0C5
:10218000A8E003F0D1FC2B680EE7C046FFBFFFFFBD
:10219000FFDFFFFFFFF7FFFFFFFEFFFF00BDFFFFB9
:1021A000FFEFFFFFFFFBFFFFFFFDFFFF0604000047
:1021B0008F0F00000F8FFFFF0204000004040000D7
:1021C00002A9C98809B2002900DBEDE6B9492E0051
:1021D0000A401A805022995AB832AA5C0936D200B5
:1021E0005218B549D2188C4662441288FF3694467C
:1021F0009205920DB26123D05708B2883169D31885
:102200008022D200914688464B44002F0DD01C00FE
:102210003800228801380A70120A4A7002340231EA
:102220000028F6D17A009B1890446246D20702D566
:1022300042461B881370B269336994466344336124
:102240000021280003F062FC50229B492B688C4639
:102250009A5AF0689A1862443E2800D91BE2410855
:1022600089B2C00701D5013189B28902118019886C
:10227000924A0A40C02189014A4091490A431A8082
:1022800092E619888F4A28000A4028211A80502295
:10229000695C9A5AC9005B189B188B4A00219446C6
:1022A000AA6B634494461B889B059B0D2B64634477
:1022B000AB6303F039FC2422AB5C002B0CD0E96B40
:1022C000002909D18020AC5C2B6820434C24185392
:1022D000A95469E6FFF740FC2B6865E6754A104093
:1022E000E2000092121B9200AA180880100013301E
:1022F000FF300078002800D0EEE050301F5A100068
:102300006D4909308C46FF300078C000C019C018F4
:1023100060440188002788058946810D8C462BD0B2
:1023200010000D32FF3212881930D3188022FF308E
:102330000168D2008A4661469346490888469B4414
:10234000002911D050465B460F0000991A88013FC2
:102350000270120A427002330230002FF6D1434657
:102360005B0000919B449A444B46DB0703D55B46D8
:1023700052461B8813706746009B181B8000281864
:1023800002002132FF321368DB1913600300193396
:10239000FF331A68D2191A6004331B68002B08D067
:1023A0008A2149008C46844461460968B94200D8B4
:1023B0007FE1009B28001B1B9B00EB180933FF33B8
:1023C000197803F0A3FB2B684EE610004027283055
:1023D00000788600F65A3E4000D1D7E050263A49B0
:1023E0009F5BC0005E18C019805B8005800D106483
:1023F00050D002398C463549976B8846D28D0130D2
:10240000D2189444904400224008110001904046A4
:10241000874251418846391D894661464846814276
:10242000524141460A436146394388460321894661
:10243000414648460140080041424141114200D115
:1024400069E101980C2800D865E1821E520801322A
:102450009046814640469846009B520093469A46D5
:102460000022634691007958013202C39042F9D8A4
:10247000524600925A464346B84649465200904456
:1024800062441700594505D042461078527812022E
:1024900002433A80009A0E48121B9200AA18283272
:1024A000127892009A18178838400A4F38431080E3
:1024B0004EE6C0468F0F0000060400008FBFFFFFEE
:1024C0008080FFFF0F8FFFFF020400000404000064
:1024D0000F0F000080C0FFFF10000930FF300078B0
:1024E0008700DF1939888C46490400D4A4E05021C4
:1024F000595AC0008846934940448846C018404411
:10250000018888058846810D8A4600D1CEE01700F3
:102510000F32FF3212881937D3188022FF373968FB
:10252000D20089465146934649089B448C460B1E6F
:1025300010D04F46584600990288013B3A70120A63
:102540007A7002300237002BF6D163465B000091AF
:102550009B4499444346DB0703D55B464A461B88A8
:102560001370009B1B1B9B00EB180933FF331F7874
:102570002B68BF00DB191A88574694466046724A9A
:1025800010400200714802431A80F5E65027704956
:10259000DF5B8C46C000C019C0186044008880050D
:1025A000800D106445D08021C9008C466949976B25
:1025B00088463100128E0130D2189444424497422A
:1025C00071418946391D88466146424691427641AD
:1025D0004A461643624603213A430A40514251415A
:1025E0004008314200D183E00C2800D880E0861EEC
:1025F0007608013600997200924689460022310021
:10260000984666469300FB58013208C69142F9D8B5
:102610004A46009252464346B846520090446244AD
:102620001700824505D0424616785278120232438E
:102630003A80444A9E182DE75021595AC0008846D6
:10264000434940448846C01840440188880588466C
:10265000810D8A462AD017001132FF3212881937AD
:10266000D3188022FF373968D200894651469346F5
:1026700049089B448C460B1E00D16BE74F465846D9
:1026800000990288013B3A70120A7A7002300237D0
:10269000002BF6D159E7410989B2C00601D10139B1
:1026A00089B22D48890201431180E0E53B000027F3
:1026B00064E70930FF3001782800FFF729F92B681B
:1026C000D2E4019A5000804662469C46009BB84482
:1026D0004146984613007A7838781202024302374E
:1026E0001A800233B942F6D14246634600922FE582
:1026F00040008046B84460469C46434600997A783C
:102700003E78120232430237028002309F42F6D1F5
:10271000634600918DE7019A5000804662469C46D0
:10272000009BB8444146984613007A7838781202E4
:10273000024302371A8002338F42F6D14246634683
:102740000092A7E6020400000F0F0000C080FFFF08
:1027500006040000040400000080FFFFF42310B50D
:102760005B00C45C02000220012C24D00138D0544C
:102770004BB2002B20DBCB005B1A9B00D3181C0054
:102780000B34FF34207018000930FF300170002036
:102790000A33FF33187000292AD111681B4B0888AF
:1027A00003401B4843401B4803430B80F423002194
:1027B00000205B00D15410BD7F231940CB005B1A71
:1027C0009B00D3181C002A3420702933023C21704E
:1027D00018700029E1D0136889009C46614408887C
:1027E0000D4B0340102043400A4803430B80DDE7B4
:1027F000136889009C4661440888084B0340802088
:1028000040014340034803430B80CFE7BFBFFFFFB6
:10281000101000008080FFFFBF8FFFFF8FBFFFFF02
:102820004AB230B5002A43DBCB005B1A9B00093368
:10283000FF33C31800241970F421D20F5A709C7012
:102840004900445C0222012C17D0013A42545A78C4
:102850000568002A13D01A789200AA181488610615
:102860002ED423001B490B4030214B401A490B4307
:102870001380F42300225B00C254100030BD1A788C
:102880009200AA181488610408D514490C40144910
:102890000C4314801A789200AA1814882300114956
:1028A0000B40C02189014B400B490B431380E0E7EB
:1028B0007F231940CB005B1A9B002833C318B9E76C
:1028C00006490C4008490C4314801A789200AA1853
:1028D0001488C6E7BF8FFFFF8080FFFF0F0F000047
:1028E00080C0FFFF8FBFFFFFC080FFFF10B50C0649
:1028F0000FD57F242140CC00611A8900283140186F
:10290000002A0ED0C3801B0C038101238372002098
:1029100010BDCC00611A89000931FF314018002A2E
:10292000F0D183800023F1E78021034A4900136836
:102930000B4313607047C04600700040F0B54F462F
:102940004646C0B4036883B00400DA072FD50C20D4
:10295000C5494A680240042A00D141E14A68024060
:10296000082A00D133E16368012B00D1A3E1002BD9
:1029700000D13FE1052B00D1FBE1BB4BBB4A1968FD
:102980000A401A601968BA4A0A401A60FDF768FDE1
:1029900080250700B44EAD0205E0FDF761FDC01BC8
:1029A000642800D96CE133682B42F6D023689A077B
:1029B0002AD50C21AC4A5068014200D1EBE05068A6
:1029C0000140082900D1DDE0E368A74D002B00D1CC
:1029D00078E101232A68022713432B60FDF740FDAD
:1029E000060005E0FDF73CFD801B022800D947E109
:1029F0002B689D4A1F42F5D0F82013682169834354
:102A0000C9000B43136023681A0700D5A2E05A07D8
:102A100040D580230020944A5B05D1698046194245
:102A200008D1D1691943D161D26913400193019B47
:102A30000123984680278F4E7F0033683B4200D1A8
:102A4000FDE0A368012B00D109E1002B00D119E1C1
:102A5000052B00D1F0E10121834B1A6A8A431A62E7
:102A60001A6A03318A431A62FDF7FAFC7E4F8146E7
:102A70000226814D06E0FDF7F3FC4B46C01AA84242
:102A800000D9FDE03B6A1E42F5D04346012B00D140
:102A900068E12368DA0612D56269012A00D1ABE148
:102AA000053200D021E10420F8256F494A6B8243AA
:102AB0004A634A6BA069AA43C00002434A639B066B
:102AC00022D50C21684A53680B400C2B00D12BE116
:102AD00053680B40082B00D11FE1236A624D002B85
:102AE00000D12CE180266B6B760233436B63FDF7DC
:102AF000B7FC070005E0FDF7B3FCC01B022800D9B6
:102B0000BEE06B6B3342F6D0636A002B1CD00C2105
:102B1000554D6A680A40082A44D02A68022B00D121
:102B200033E1564B2C0013402B60FDF799FC8025B8
:102B30000600AD0405E0FDF793FC801B022800D9D8
:102B40009EE023682B42F6D1002003B00CBC9046D7
:102B50009946F0BDE369444D002B25D001236A6AF4
:102B6000022613436B62FDF77BFC070005E0FDF7CF
:102B700077FCC01B022800D982E06B6A1E42F6D0A7
:102B8000236844E75168C02252020A4080210902AA
:102B90008A4200D018E7344A1268920743D5E268A7
:102BA000012A40D00120D0E701226B6A022693431C
:102BB0006B62FDF755FC070004E0FDF751FCC01BFC
:102BC00002285DD86B6A1E42F7D123681FE7C02236
:102BD000496852020A40802149028A4200D0C2E676
:102BE000214A1268920300D4E1E66268002A00D00C
:102BF000DDE6D7E71C4D1D4B2A68802613402B606D
:102C00002A681B4BB60213402B60FDF729FC070016
:102C100004E0FDF725FCC01B642831D82B68334243
:102C2000F7D12368C3E6F8250F4821690268C90077
:102C3000AA430A4302601A0700D4E8E68AE7336829
:102C40003B433360FDF70CFC050004E0FDF708FC96
:102C5000401B642814D833683B42F7D0F1E6024A9F
:102C6000116A0B431362FFE600100240FFFFFEFFF4
:102C7000FFFFFBFF0070004088130000FFFFFFFE16
:102C8000032062E70122714E0227336A704D93439D
:102C90003362336A033293433362FDF7E1FB8146CB
:102CA00005E0FDF7DDFB4B46C01AA842E8D8336AC1
:102CB0001F42F6D1E9E68021644A490213680B43BA
:102CC000136063E601222B68022693432B60FDF715
:102CD000C7FB070004E0FDF7C3FBC01B0228CFD8E9
:102CE0002B681E42F7D123688EE60423574D022637
:102CF0006A6B134301226B636B6B93436B63FDF74A
:102D0000AFFB070004E0FDF7ABFBC01B0228B7D800
:102D10006B6B1E42F7D12368D1E65368C022520282
:102D20001340934200D0D8E6484B5B6BDB0300D4E2
:102D3000EAE6236A012B00D1E6E6012005E76A6B8B
:102D4000444B802613406B63FDF78AFB7602070035
:102D500004E0FDF785FBC01B022891D86B6B334262
:102D6000F7D1D1E6394A3C4BD1690B40D361236896
:102D700090E68021354BC9021A680A4380211A6007
:102D80001A6849020A431A6000E6344B8027134050
:102D90002B60FDF765FBBF04804606E0FDF760FB96
:102DA0004346C01A022800D96AE72B68274E3B42E7
:102DB000F4D10F22F36A9343226B1343F362A26AA6
:102DC000E16A73681143264A8024134080220B4332
:102DD00073603368520413433360FDF741FBA4046E
:102DE000050005E0FDF73CFB401B022800D947E742
:102DF00033682342F6D0A7E60423144D0227696BFB
:102E00000B436B636B6B1A436A63FDF729FB060088
:102E100005E0FDF725FB801B022800D930E76B6B2E
:102E20000A4A1F42F5D0F820536BA1698343C900B9
:102E30000B435363236842E60422044B196A0A4396
:102E40001A620122196A0A431A620DE60010024052
:102E500088130000FFFFFEFFFFFFFFEFFFFFFFFEF5
:102E6000FF7FC2FF30B5204C89B010222100684698
:102E700003F044F821001022103104A803F03EF8BA
:102E80000C231A494A681340082B0AD00C2B06D091
:102E9000042B02D0164809B030BD1648FBE716488F
:102EA000F9E70F256B46900C28401C5CCB6A10207C
:102EB00069462B400918C95CC02380205B021A4078
:102EC000400282420BD09A4204D00948FDF728F90B
:102ED0006043E0E70848FDF723F96043DBE7054876
:102EE000FDF71EF96043D6E7285F00080010024096
:102EF00000127A0000366E01006CDC02F8B546461E
:102F00004F460C000121564AC0B4136806000B401E
:102F1000A3420CD213688B432343136013681940F8
:102F20008C4204D001200CBC90469946F8BD336811
:102F30009A0706D5F0204B494A688243B06802439D
:102F40004A60DB0728D57368464A012B50D0022B14
:102F500048D0032B60D012689207E3D50321414D7E
:102F60006A688A4313436B60FDF77AFA7368070057
:102F7000012B41D0022B53D0032B61D00C23984658
:102F8000394B994604E0FDF76BFAC01B48452DD834
:102F900042466B681A42F6D10121314A13680B4050
:102FA0009C4205D213688B43136013681942B9D150
:102FB00033685B0706D52B492C4B4A681340F268EF
:102FC00013434B60FFF74EFF264B294A5B681B06F5
:102FD0001B0FD35CD840274B18600020FDF716FA72
:102FE0000020A0E712689201B8D49BE703209AE77B
:102FF00012689203B2D495E70B3398461A4B994660
:1030000004E0FDF72DFAC01B4845EFD842466B6837
:103010001340042BF5D1BFE7526BD2039ED481E756
:103020000A339846104B994604E0FDF719FAC01B85
:103030004845DBD842466B681340082BF5D1ABE717
:1030400009339846084B994604E0FDF709FAC01B7E
:103050004845CBD842466B6813400C2BF5D19BE713
:10306000002002400010024088130000FFF8FFFF1C
:10307000A85F000814010020014B18687047C04683
:1030800014010020F0B54F464646C0B4036883B033
:103090000400DA0339D580230020464A5B05D16954
:1030A0008046194208D1D1691943D161D2691340D0
:1030B0000193019B0123984680263F4D76002B68A3
:1030C00033425ED0C0213B4D89002B6A0B4056D065
:1030D000626811408B420ED08026286A296A7602E7
:1030E000314329622E6A354B35490340314029620C
:1030F0002B62C30734D42F49304B086A03401A436C
:1031000043460A62012B4CD02368DA0706D5032018
:1031100028490A6B8243A06802430A639A0606D5CF
:10312000102024490A6B8243E06802430A639A0331
:103130000ED400205B0506D540221E490B6B93433D
:10314000226913430B6303B00CBC90469946F0BD53
:10315000802018490A6B8243606902430A63E8E7EA
:10316000FDF77EF9174B07000226994604E0FDF7AC
:1031700077F9C01B48451AD82B6A1E42F7D06268FF
:10318000B9E72B6833432B60FDF76AF9070004E0C9
:10319000FDF766F9C01B642809D82B683342F7D0C5
:1031A00090E7CA69084B1340CB612368ADE7032061
:1031B000C9E7C0460010024000700040FFFCFFFF5E
:1031C000FFFFFEFF88130000FFFFFFEFF8B5041EAE
:1031D0004DD0437FDBB2002B63D00223CA2263773A
:1031E00023685A62773A5A62DA68520641D599687A
:1031F0002E4A0A409A609A6861680A4321690A4324
:1032000061690A439A60E268A1681A611A6909044F
:103210000A4380211A61DA688A43DA609A68920662
:103220000DD5196C224A00200A401A641A6CA16953
:103230000A431A64FF225A6201236377F8BDA02172
:10324000DA68FA268A43DA60FDF70AF920250700D2
:10325000B6002368DA681542E3D1FDF701F9C01B17
:10326000B042F6D9FF2223685A6204236377012013
:10327000E4E701225242DA60FDF7F2F8FA2607008D
:103280004025B6002368DA681542B0D1FDF7E8F8AA
:10329000C01BB042F6D9FF2223685A620423637729
:1032A000E5E7037702F082FA97E7C046BFFF8FFF9A
:1032B000FFFFFBFFF0B5454657464E46E0B4037F9F
:1032C00004000D000220012B5DD0012360772068EF
:1032D000237740268368002A5AD11E4000D089E017
:1032E000CE70206829780023092906D90A39C9B285
:1032F00001330929FAD81B01DBB26A7819430904A2
:103300000027092A06D90A3AD2B20137092AFAD87F
:103310003F01FFB2AB783A4317020022092B00D8D5
:103320008AE00A3BDBB20132092BFAD81201D2B291
:1033300094460E43320061463A430B431A43CA2374
:103340004362773B4362C36891465B0635D54E4680
:103350003A4B1E4006608268394B13408360836895
:10336000EA6813432A69134380228360C368934346
:10337000C36083689B0643D5FF234362FE3B6377AC
:103380000023002023771CBC90469946A246F0BD3E
:1033900032001A4031D1CA7020682E786B7836041A
:1033A0001B021E43AB781E43CA234362773B436232
:1033B000C3681643B1465B06C9D401235B42C360B0
:1033C000FDF74EF84023FA2682469846B60043465B
:1033D0002068C7681F40BAD1FDF742F85346C01AAB
:1033E000B042F4D9FF22236801205A6204232777D0
:1033F0006377C8E7CE78360474E7CE783204CCE73A
:10340000A022C368FA279343C360FDF729F820265A
:103410008046BF002068C5683540ADD1FDF720F873
:103420004346C01AB842F5D9FF22236801205A62E8
:10343000042325776377A6E794467AE77F7F7F00AA
:10344000FFFFFBFF0068F0B5836A47464B600369E6
:1034500000685B045B0C8B60184B90460340402275
:103460007F2080B41F0C06003A403F24CA704246B9
:103470001D0AEDB2DBB23C402E4018400C704E707D
:103480008870002A15D12409A20014190F226400A3
:103490001740E419360900090C70B400A61984001D
:1034A000201876001540400013407619C0184E7061
:1034B0008870002004BC9046F0BDC0467F7F7F002E
:1034C000F8B54F464646C0B4037F04000220012BE6
:1034D00029D0012360772377002A28D0C8784B7839
:1034E00000041B021843CA238E780A7821683043EF
:1034F0004B62773B4B625203CB68104380465B06BE
:103500004DD543468022444803404B60CB689343EB
:10351000CB608B689B0662D5FF234B62FE3B6377D3
:103520000023002023770CBC90469946F8BD4B78C9
:1035300010321A424ED1CA780020092A06D90A3A16
:10354000D2B20130092AFAD80001C0B202431204F3
:103550000025092B06D90A3BDBB20135092BFAD825
:103560002D01EDB288782B431D020026092806D9CB
:103570000A38C0B201360928FAD83601F6B20B78FB
:1035800030435B031A4313002B4303439846CA237B
:1035900021684B62773B4B62CB685B06B1D4012359
:1035A0005B42CB60FCF75CFFFA2681464025B60003
:1035B0002168CF682F40A4D1FCF752FF4B46C01AB8
:1035C000B042F5D9FF22236801205A6204232777ED
:1035D0006377A8E793430A33DBB24B70ABE7A022D3
:1035E000CB68FA279343CB60FCF73AFF202680464E
:1035F000BF002168CD68354000D08DE7FCF730FF73
:103600004346C01AB842F4D9FF22236801205A6207
:1036100004232577637786E73FFFFF000368F0B553
:103620005868144B03401F201C0A1F0CDDB2E4B283
:103630001B0420405B0FCF7048708D700B70002A08
:1036400015D13B099A00D3180F225B0000091740DF
:10365000DF1983001818400014402B090019487026
:103660009800C3185B0015405B19CF708B70002069
:10367000F0BDC0463FFFFF0010B5041E65D03D23DE
:10368000C35CDBB2002B40D002223D233049E25420
:1036900023681A688B4244D08021C9058B421AD016
:1036A0002C498B4217D02C498B4218D02B498B4286
:1036B00015D02B498B4212D080218A43A1690A433D
:1036C0001A60E268DA6262689A6201225A613D23F6
:1036D0000020E25410BD70218A43A1680A432149A9
:1036E0000A4021690A4380218A43A1690A431A607A
:1036F000E268DA6262689A62184A934202D0184A13
:103700009342E2D162691A63DFE73C22835402F0FC
:103710005DF802223D230E49E25423681A688B4269
:10372000BAD170218A43A1680A430E490A4021692F
:103730000A4380218A43A1690A431A60E268DA6277
:1037400062689A6262691A63BFE70120C2E7C046F5
:10375000002C0140000400400020004000440140D3
:1037600000480140FFFCFFFF01220368D9680020E8
:103770001143D96019680A431A6070477047C04600
:1037800010B5041E65D03D23C35CDBB2002B40D0D6
:1037900002223D233049E25423681A688B4244D008
:1037A0008021C9058B421AD02C498B4217D02C4955
:1037B0008B4218D02B498B4215D02B498B4212D00B
:1037C00080218A43A1690A431A60E268DA6262686A
:1037D0009A6201225A613D230020E25410BD7021FB
:1037E0008A43A1680A4321490A4021690A4380218A
:1037F0008A43A1690A431A60E268DA6262689A62DF
:10380000184A934202D0184A9342E2D162691A637D
:10381000DFE73C228354FFF7B1FF02223D230E492C
:10382000E25423681A688B42BAD170218A43A16896
:103830000A430E490A4021690A4380218A43A1694B
:103840000A431A60E268DA6262689A6262691A631D
:10385000BFE70120C2E7C046002C01400004004041
:10386000002000400044014000480140FFFCFFFFF1
:1038700001228A400368196A91431962196A0A434E
:103880001A620A4A93420BD0094A934208D0094A65
:10389000934205D00122196800200A431A6070473C
:1038A00080215A6C09020A435A64F3E7002C014054
:1038B0000044014000480140042920D02AD90829A9
:1038C0001DD00C292ED110220368D8680243DA607B
:1038D00001228A40196A91431962196A0A431A62DD
:1038E000114A934210D0114A93420DD0104A93428C
:1038F0000AD00122196800200A431A607047036841
:10390000DA680A43DA60E3E780215A6C09020A4365
:103910005A64EEE7002905D102220368D868024301
:10392000DA60D5E70368D3E7002C0140004401408A
:1039300000480140F0B53C24055D03000220012D44
:1039400044D001251D5501341855042A00D16DE0DD
:1039500000D89AE0082A3AD00C2A30D11A687A485E
:10396000146A20401062176A784C5668D069044087
:1039700008680502254376488C68384024032043B4
:10398000744CA24200D1ACE0734CA24200D1A8E03A
:10399000724CA24200D1A4E04C685660D561146418
:1039A00080241062D06924012043D061D4696C481E
:1039B00009692040D061D06909020143D161012128
:1039C0003D22995400210020013A9954F0BD1A6813
:1039D0006448146A0E68204010627320176A5568A4
:1039E000D4698443264360488C68384024022043CD
:1039F000584CA24200D18AE0574CA24200D18DE03F
:103A0000564CA24200D189E04C685560D661D4631F
:103A100010620820D469096920430424D061D06968
:103A2000A043D061D0690143D161C8E710241A686E
:103A3000106AA0431062106A444C566895692C4085
:103A40000D682D022C432025A8438D682D012843A5
:103A5000404DAA424BD0404DAA424FD03F4DAA42C2
:103A60004CD0566094614C6809699463802410625C
:103A700090692401204390619469394809022040EB
:103A8000906190690143916199E7002A97D11A6882
:103A90007327146AAC431462166A54688643300074
:103AA00095698E68BD4330430F682A4E3D43B2424C
:103AB0003DD0294EB2423AD0284EB24237D054605F
:103AC0004C68956154631062082094690969204329
:103AD000042490619069A0439061906901439161D1
:103AE0006DE7224C26404C69A401264354E780250B
:103AF000A843CD682D0128434025A8431C4D2E40E6
:103B00004D69AD002E438D69AD002E43A9E7194CD8
:103B10002040CC6824022043114C2040164C254004
:103B20004C69240125438C69240125436CE7082650
:103B3000B043CE688F6930430426B0430F4E344003
:103B40004E693E433443BAE7FFEFFFFFFF8CFFFFB0
:103B5000FFDFFFFF002C014000440140004801400E
:103B6000FFFBFFFFFFFEFFFFFFFDFFFFFFBFFFFFAC
:103B7000FFF3FFFFFFF7FFFFFFCFFFFFFFFCFFFF9C
:103B80003C2270B5845C0223012C3ED00124845475
:103B90000132835403685A4A9D682A409A600A6831
:103BA000402A00D176E01CD9702A62D02FD9802417
:103BB0006401A24258D08024A401A2421ED14C68C4
:103BC0008E689A68264334004E4D2A401443CA68D2
:103BD0008021120222439A609A68C9010A439A60BE
:103BE0000CE0102A30D036D9202A6AD0302A05D1EC
:103BF00070219A688A4339390A439A6001223D2329
:103C0000C2540022013BC2540023180070BD502A48
:103C10005ED0602AF2D110254A68CC68196A240364
:103C2000A94319629E69384D196A35402C43A02575
:103C30001201A9430A4370219C611A629A688A435F
:103C400009390A439A60D9E770219A688A43593939
:103C50000A439A60D2E7002AD0D170219A688A4339
:103C600069390A439A60C9E707219A688A439A60CA
:103C7000C4E74C688E689A6826433400214D2A4078
:103C80001443CA68120222439A60772299680A4351
:103C90009A60B3E71A6A1E6A4D68A643C9681E6235
:103CA000F0269C690901B44321430A2499617021DB
:103CB000A2432A431A629A688A4329390A439A60BE
:103CC0009CE770219A688A4349390A439A6095E7CC
:103CD0001A6A1E6A4D68A643C9681E62F0269C696E
:103CE0000901B44321430A2499617021A2432A4364
:103CF0001A629A688A4319390A439A607EE7C04675
:103D00008800FFFFFF00FFFFFF0FFFFF7047C04667
:103D10007047C0467047C0460222036810B5196953
:103D200004000A4202D0D9680A4268D10422196903
:103D30000A4202D0D9680A424ED1082219690A42C1
:103D400002D0D9680A4236D1102219690A4202D03B
:103D5000D9680A421CD1012219690A4202D0D968E5
:103D60000A4269D1802219690A4202D0D9680A42FE
:103D700069D1402219690A4202D0D9680A4254D155
:103D8000202219690A4202D0D9680A4247D110BDDF
:103D9000213A1A6119322277DA69C0239B00200088
:103DA0001A425BD1FFF7B2FF200001F06FF8002349
:103DB00023772368CFE7113A1A61DB690D32227746
:103DC00020009B0750D1FFF7A1FF200001F05EF813
:103DD000002323772368B7E7093A1A61073222776D
:103DE0009A69C0239B0020001A423AD1FFF78EFF48
:103DF000200001F04BF80023237723689DE7053A64
:103E00001A619B69043202779B0724D1FFF77EFF7A
:103E1000200001F03BF800232377236886E7413A2E
:103E20001A61200000F080F8B1E7813A1A612000A1
:103E3000FFF770FF2368A3E7033A1A61200000F040
:103E400035FE23688EE7023AFF3A1A61200000F03F
:103E50006DF823688DE7FFF75BFFDCE7FFF758FF9E
:103E6000A5E7FFF755FFC6E7FFF752FFB0E7C046EB
:103E700070B53C24035D02000220012B17D03D25C4
:103E80007026136850555868B043586058680E68DB
:103E900049683043802658609868B04398609868B5
:103EA000014399600123535500230020135570BD31
:103EB00030B53C24025D03000220012A24D03D25B8
:103EC000124A5855C86802408868024310480240A8
:103ED000486802430F480240086802430E48024007
:103EE000086902430D480240486902430C480240F9
:103EF00088690C4902430A40196802434A64012256
:103F00005A55002200201A5530BDC046FFFCFFFF65
:103F1000FFFBFFFFFFF7FFFFFFEFFFFFFFDFFFFFED
:103F2000FFBFFFFFFF7FFFFF7047C0467047C046DF
:103F300070B5041E00D1A0E03C23C35CDBB2002BB3
:103F400000D191E002223C232000E25401F08EFCDB
:103F5000012322686168136013680B43A1680B4357
:103F600061690B43A1690B43E1690B43616A0B4330
:103F7000A16A0B43216949040B431360E368012BD9
:103F800000D174E0236B616BA56B194308002843D3
:103F9000C043106191620F211940481E8141156292
:103FA0000220F02508431D4256D0F02504212D01A2
:103FB00001432B4248D0F02508202D0208432B4214
:103FC0003AD0F02510212D0301432B422CD0F025AF
:103FD00020202D0408432B421ED0F02540212D0522
:103FE00001432B4211D080201B0F0843002B0AD124
:103FF00011630321536800208B43536091603C237D
:104000000122E25470BD0100F2E7010080201B0F85
:104010000843002BECD0F6E7F025080040212D05E1
:1040200001432B42DFD1F0E7F025010020202D04D1
:1040300008432B42D1D1EFE7F025080010212D03D2
:1040400001432B42C3D1EFE7F025010008202D02E8
:1040500008432B42B5D1EFE7F025080004212D01DC
:1040600001432B42A7D1EFE73D2283546AE7802129
:10407000136849020B43136084E70120C2E7C0467E
:1040800086239B00C358002B05D0852200210020E9
:104090009200995070470220FCE7C04686239B009F
:1040A00070B5C4580433C358002B0BD08025AD0025
:1040B000605DFF2806D0044A9B68A25C21009847F7
:1040C000FF236355002070BD0102000043230380DD
:1040D000004870470000002043230380014844301B
:1040E0007047C04600000020432303800148083089
:1040F0007047C046800000200A23038001484C30EE
:104100007047C0468000002070B58626B6000400C7
:10411000855901F031FE83239B00E850A35902200A
:10412000002B09D083239B00E918083BE85818337B
:10413000E358DB689847002070BDC046602370B527
:104140000C00097805000B4017D0202B13D1E28812
:10415000002A26D0F933FF3349B2C658002914DBB0
:10416000802362789B00F254E288124B3100F254B3
:10417000E28800F06BFC002070BD63780A2BFAD156
:1041800001220D4900F04CFCF5E70433EB583100F7
:1041900060789B689847E2883100280000F040FC76
:1041A000E9E787239B00EB5860789B680022210099
:1041B0009847E0E7010200007801002070B5040094
:1041C0008625812101F060FD0121200001F05CFDC8
:1041D000AD008221200001F057FD6359002B09D06A
:1041E00087239B00E3585B689847605901F0D0FD36
:1041F00000236351002070BDF8B5037C0400002B40
:1042000032D1802302229B00812101F02BFD8023EB
:1042100002229B000121200001F024FD87270823B2
:10422000032282212000BF0001F01CFD86263800F9
:1042300001F0AAFDB600051EA0512BD0E3591B6862
:104240009847852200239200AB50AB51237C002B72
:1042500016D081239B00EA58C53BFF3B012120007B
:1042600001F07AFD0020F8BD40230222812101F0F7
:10427000F9FC402302220121200001F0F3FCCDE7EC
:1042800081239B00EA580121043B200001F064FDDA
:104290000020E8E70120E6E7002904D087239B00FF
:1042A000C150002070470220FCE7C04686239B00D7
:1042B000C3588220800019508421890000205A5060
:1042C0007047C04686239B00C258143B0020D15043
:1042D0007047C04686239B00C35810B5002B15D0ED
:1042E000027C002A08D0812292009A5801214023A2
:1042F00001F032FD002010BD812292009A588023E7
:1043000001219B0001F028FD0020F4E70220F2E7E4
:1043100010B5002814D085239B00C458002C01D070
:104320000024C450002902D084239B00C150FE23E6
:1043300001215B00C154027001F03CFC002010BD63
:104340000220FCE7002904D085239B00C1500020F7
:1043500070470220FCE7C04610B501F073FC002056
:1043600010BDC04685239B00C35810B5002B03D059
:104370001B689847002800D0022010BD852310B587
:104380009B00C3585B689847002010BD82239B00A8
:1043900070B5C5180400280000F006FBFA230122BE
:1043A0005B00E250124BE25A163BE2501033E15CE4
:1043B000EA3BFF3B0B40012B14D0002B0DD0022B0E
:1043C00006D07F232000994301F06EFC002070BDD1
:1043D0002900200000F074FAF8E72900200000F01E
:1043E000EBF8F3E72900200000F048FAEEE7C046BA
:1043F0000E02000010B513000400002906D1FA22B5
:1044000052008258032A0ED0002010BD85239B0045
:10441000C3589B69002BF7D0FE225200825C032A0E
:10442000F2D19847F0E7411DFF318868CA68904291
:104430000ED885239B00E3581B69002B04D0FE2275
:104440005200A25C032A0ED0200000F017FBDBE72D
:10445000801A8860824200D9020092B219002000BE
:1044600000F004FBD0E720009847EDE7F8B5040022
:10447000130000290BD1FA2252008258022A16D0CA
:1044800080239B00E25C012A0ED00020F8BD85232A
:104490009B00C3585B69002BF7D0FE225200825C60
:1044A000032AF2D19847F0E70022E254EDE7C2690F
:1044B000056AAA4229D8866929003000FBF7B6FEB2
:1044C0000F1E13D1B54211D8FC256D0063599E42D1
:1044D0000CD200220021200000F0B0FA6751002326
:1044E00000220021200001F037FCC9E785239B0052
:1044F000E358DB68002B04D0FE225200A25C032AA2
:104500000AD0200000F0C6FABAE7521BC2611900B7
:1045100092B200F093FAE2E720009847F1E7C04634
:1045200070B5402300220021040001F09BFB88238A
:1045300040255B00E5500022D03B8021200001F0A7
:1045400091FBFE2301225B002562E2541C33E358F9
:10455000002B06D085239B00E35821795B6820005F
:104560009847002070BDC046017400207047C046C7
:10457000FE23FE225B00C15CFF328154FA3AFF3A0F
:10458000C25400207047C046FE23FF33C25C013B8B
:10459000C25400207047C046FE2310B55B00C35CC8
:1045A000032B01D0002010BD85239B00C358DB697D
:1045B000002BF7D09847F5E770B54B7882B0040030
:1045C0000D00092B0AD8A94A9B00D3589F468B8817
:1045D000002B03D1CB88002B00D177E08021200075
:1045E00001F062FB0021200001F05EFB002002B020
:1045F00070BD8B789E4D2B70012BEFD8FE214900AA
:10460000425C022A00D181E0032AE7D1002B00D1CD
:1046100021E14168012909D0C9B2FFF7AFFE29782D
:1046200020006160FFF79EFE0228D7D0200000F036
:1046300025FADBE7FE235B00C35C023B012BCDD8F0
:104640000123C36081239B00C358002B01D00323A7
:10465000C360210002220C31200000F0E1F9C5E71F
:10466000FE235B00C35C023B012BB7D84B88012BB8
:10467000BCD1812300229B00C250103307E04B883D
:10468000012BB3D181229200835085239B00E358F4
:1046900029009B6820009847C8E74A88130A072B1F
:1046A0009CD874499B00CB589F46CB88012B00D0E7
:1046B00094E7FC33FF33C35C022B1FD0032B00D0E5
:1046C0008CE7011D012200F0ABF98FE7FE267F2564
:1046D0004B8876001D40835D032B00D17EE7FF23CE
:1046E0005B00C554290001F017FB200000F0C6F95B
:1046F000002D00D1A1E00223A35577E7002301009C
:1047000083600831012200F08BF96FE7002B8DD018
:1047100001234360023343540121FFF723FE0228A3
:1047200000D083E75AE7037C002B00D056E76B46A6
:104730009E1D85239B00C35830001B6B98470723A1
:1047400043703388002B00D150E7EA88002A00D15B
:104750004CE7191C934200D9111C8AB23180010028
:10476000200000F05DF941E7037C002B00D035E725
:104770006B469E1D85239B00C35830005B6B98479A
:10478000DFE76B469E1D84239B00E35831001B68C6
:10479000007C9847D5E7D2B2052A00D91EE7364BF0
:1047A00092009B589F46037C002B49D16B469E1D6F
:1047B00085239B00C35830009B6A984702234370AF
:1047C000BFE76B469E1D84239B00E3583100DB68E6
:1047D000007C9847B5E76B469E1D84239B00E358F9
:1047E00031009B68007C9847ABE76B469E1D842395
:1047F0009B00E35831005B68007C9847A1E76B465B
:104800009E1D84239B00E35831009B69007C9847E0
:1048100097E76B469E1D84239B00E35831005B693C
:10482000007C98478DE76B469E1D84239B00E358D0
:1048300031001B69007C984783E70123A355D5E627
:104840006B469E1D85239B00C3583000DB6A98474A
:104850000223437075E70222425443600021FFF7B0
:104860008DFD200000F00AF9C0E6C046485F000850
:1048700079010020705F0008905F0008FE2370B58A
:104880005B00C35C04000D00032B02D10B79012BEC
:1048900009D98021200001F007FA0021200001F051
:1048A00003FA002070BD85239B00C3589B6898477E
:1048B000EB88002BF5D1200000F0E0F8F1E7C046CE
:1048C00070B50C00050060208A882378D1B20340BF
:1048D000202B5BD06378012B39D0002B1CD0032B0D
:1048E00018D1FA33FF33EB5C022B35D0032B44D1C4
:1048F0006388002B04D14B0602D0280001F0D4F9C4
:1049000085239B00EB5821009B68280098472800CE
:1049100000F0B4F8002070BDFE235B00EB5C022BBE
:104920001AD0032B29D17F240C40130636D410341F
:1049300024012C190434280001F0D6F9431E9841B3
:10494000022220602100280000F06AF8E2E7FE233E
:104950005B00EB5C022B05D14B06DBD0280001F09D
:10496000A3F9D7E7032B08D16388002BD2D14B06DC
:10497000CDD0280001F0A8F9C2E78021280001F07D
:1049800093F90021280001F08FF9C3E7F533FF33D5
:10499000EB5821009B6828009847BBE701342401AD
:1049A0002C190434C7E7C0460B7803704B7843706A
:1049B000CB788A781B02D31843804B790A791B0283
:1049C000D3188380CB798A791B02D318C3807047B0
:1049D00030B5002820D00378002B1ED0040000231F
:1049E000013425780133DBB2002DF9D15B000233AD
:1049F000DCB2138003230C704B700478002C0BD0B6
:104A00000025013B5A1CD2B2CC5401308D5404789D
:104A10000233DBB2002CF5D130BD02240223E8E7DB
:104A20001300FA2210B50224520084500A00836158
:104A3000C361002101F080F9002010BD10B5130002
:104A40000A00002101F078F9002010BD1300FA22BD
:104A500010B5032452008450EC3A83500432835042
:104A60000A00002101F078F9002010BD10B51300F4
:104A70000A00002101F070F9002010BDFA23042281
:104A800010B55B00C25000210023002201F054F950
:104A9000002010BDFA23052210B55B00C250002192
:104AA0000023002201F058F9002010BDD94B70B549
:104AB000984200D070BDD84B1B78002B00D1B7E0D6
:104AC000D64CD74E012231002000FEF7BBFC01225C
:104AD000D4492000FEF7A2FDD34BD44D1B78182BF0
:104AE00000D1FCE02B78012B08D0022B00D1F0E0A4
:104AF000032B00D16BE1042B00D1FDE000248021C9
:104B000000220902CA48FBF73DFF80210022C901AB
:104B1000C748FBF737FF802100228901C448FBF713
:104B200031FF802100224901C148FBF72BFF002201
:104B30000821BF48FBF726FF8021902000220902B0
:104B4000C005FBF71FFF802100228900B848FBF752
:104B500019FF802100228901B648FBF713FF80214D
:104B600000224900B248FBF70DFF80210022090115
:104B7000B148FBF707FF00228021AD48FBF702FF99
:104B800000224021AA48FBF7FDFE00222021A84870
:104B9000FBF7F8FE00221021A548FBF7F3FE002CDE
:104BA0001AD0012C00D115E1022C00D11AE1032CFE
:104BB00000D121E1042C00D125E1052C00D147E1F1
:104BC000062C00D14BE1072C00D14EE1082C00D17E
:104BD00051E1092C00D131E1012208219448FBF771
:104BE000D1FE2B78022B00D1A7E000D888E0032B60
:104BF00000D1D1E0042B00D0BAE0802100220902CC
:104C00008B48FBF7BFFE80210022C9018848FBF7D3
:104C1000B9FE8021002289018548FBF7B3FE0122FD
:104C2000802183484901FBF7ADFE01232B7041E74A
:104C30008021002209027E48FBF7A4FE8021002289
:104C4000C9017B48FBF79EFE80210022890178483C
:104C5000FBF798FE8021002249017548FBF792FE80
:104C6000002208217248FBF78DFE8021902000224F
:104C70000902C005FBF786FE8021002289006C48EE
:104C8000FBF780FE8021002289016A48FBF77AFE4B
:104C90008021002249006648FBF774FE8021002233
:104CA00009016548FBF76EFE002280216048FBF792
:104CB00069FE002240215E48FBF764FE00222021AD
:104CC0005B48FBF75FFE002210215948FBF75AFEB4
:104CD000F0E630780C21FBF7A9FACCB20FE72B787D
:104CE000012B00D185E0022B00D1ADE0032B6ED06B
:104CF0000024042B00D002E70F2473781C40FEE64A
:104D0000012B35D18021012209024948FBF73AFEE7
:104D100080210022C9014648FBF734FE8021002291
:104D200089014348FBF72EFE8021002249014048BB
:104D3000FBF728FE02232B70BCE68021002209022B
:104D40003B48FBF71FFE80210122C9013848FBF7D1
:104D500019FE8021002289013548FBF713FE8021CE
:104D6000002249013248FBF70DFE03232B70A1E618
:104D70008021002209022E48FBF704FE8021002238
:104D8000C9012B48FBF7FEFD80210022890128483C
:104D9000FBF7F8FD002243E78021002209022448A6
:104DA000FBF7F0FD80210022C9012148FBF7EAFD55
:104DB0008021012289011E48FBF7E4FD80210022A9
:104DC00049011B48FBF7DEFD04232B7072E6747863
:104DD000240994E68021902001220902C005FBF7F6
:104DE000D1FDFEE68021012289001148FBF7CAFDB2
:104DF000F7E63478240982E68021012289010D48F2
:104E0000FBF7C0FDEDE68021012249000848FBF7D1
:104E1000B9FDE6E6340400200C0400201004002054
:104E2000F8030020A4030020A103002010010020AB
:104E30000004004800080048001400480122102126
:104E40001048FBF79FFDCCE60F2433781C4056E654
:104E50008021012209010C48FBF794FDC1E60122E3
:104E600080210848FBF78EFDBBE601224021054862
:104E7000FBF788FDB5E6012220210248FBF782FD01
:104E8000AFE6C04600040048001400482A4B10B5A5
:104E9000984200D010BD002208212848FBF772FD7F
:104EA0008021902000220902C005FBF76BFD8021C4
:104EB000002289002148FBF765FD8021002289013D
:104EC0001F48FBF75FFD8021002249001B48FBF7CC
:104ED00059FD8021002209011A48FBF753FD0022E9
:104EE00080211648FBF74EFD002240211348FBF7B6
:104EF00049FD002220211148FBF744FD002210212A
:104F00000E48FBF73FFD8021012209020B48FBF709
:104F100039FD80210122C9010848FBF733FD8021BA
:104F2000012289010548FBF72DFD8021012249015D
:104F30000248FBF727FDADE73404002000040048D9
:104F40000008004800140048F0B557464E46454654
:104F5000E0B415250123642786B0774E6D44019394
:104F6000002250210297009530009946FBF7D8FFA8
:104F70001624022382466C4401930122013B5021F6
:104F8000029700943000FBF7CBFF53460343DBB29C
:104F90009A464B460193694B02970093984602222A
:104FA000012350213000FBF7BBFF53461843C0B22A
:104FB000012861D02B78013B632B00D96DE0238859
:104FC0005F4A0A3B9BB2934200D98DE043461B786F
:104FD0000C2B24D0182B22D018234246802190205D
:104FE000137049000022C005FBF7CCFC0A20FBF738
:104FF0003DFA64230293633B01934346022250210E
:10500000009330000123FBF791FE0A20FBF72EFAF4
:105010008021902001224900C005FBF7B3FC2B78CA
:105020005A1E452A00D87FE02188464D0B000A3BD6
:105030009BB2434A934206D84348FBF7FBF8434BE5
:1050400018802B6898622800FEF78EFB404C2000E9
:10505000FEF78AFB00212800FEF72EFC0821200025
:10506000FEF706FC0C212000FEF702FC06B01CBC7B
:1050700090469946A246F0BD462342462B702E3BF1
:105080001370AF2252006421100027804233314C4C
:105090002C4D208028684263CBE780219020462356
:1050A00000224900C0052B70FBF76CFC0A20FBF7BF
:1050B000DDF94B4600225021019302970123009510
:1050C0003000FBF733FE0A20FBF7D0F98021902057
:1050D00001224900C005FBF755FC2388184A0A3B0A
:1050E0009BB2934200D871E7802190206427002270
:1050F0004900C0052780FBF745FC0A20FBF7B6F9FD
:105100000123012201935021029700943000FBF704
:105110000DFE0A20FBF7AAF9802190200122490008
:10512000C005FBF72FFC51E72188980018180B00E9
:105130000A3B02009BB2AAE7AC030020A1030020B7
:10514000DE03000034040020C05D000030040020B5
:105150007C0400207804002030B599B0FDF7E4FB12
:105160001823234A1024116A02250B4313621523C6
:105170000B93143B0C930D93109380235B021593B8
:1051800000230BA81194149516931793FDF7D6FBE3
:10519000002800D0FEE7072303900490012101A816
:1051A00001930295FDF7AAFE002800D0FEE7114BFF
:1051B00005A8059380235B000693803B08940A931F
:1051C000FDF760FF002800D0FEE7FDF755FFFA214C
:1051D0008900FAF7A5FFFBF7C9FA0420FBF7E2FA0A
:1051E0000120002200214042FBF782FA19B030BDB5
:1051F0000010024020000300F0B544465F465646CA
:105200004D46F0B40025DB4B99B01D70DA4B80267B
:105210001D70DA4BB6011D70FBF70AF9FFF79CFF12
:105220008022D74B12035969D648114359615969F5
:1052300080270A400092009A80225969D2031143C4
:10524000596159693F010A400192019A80225969C6
:10525000920211435961596911AC0A400292029AB3
:1052600080225969D202114359615B6931001A40A9
:1052700003920022039BFBF785FB01220421C24815
:10528000FBF780FBC14B00221900BF489B46FBF790
:1052900079FB812390201B0219000022C0059A4649
:1052A000FBF770FB00223900B948FBF76BFB119646
:1052B00001262100B3486660A560E560FBF788FA27
:1052C0000423210098461193AF480D336360A56015
:1052D000E560FBF77DFA5B462100AB481193666001
:1052E000A560E560FBF774FA902053462100C005E5
:1052F00011936660A560E560FBF76AFAA448210097
:1053000011976660A560E560FBF762FAA14FA24BBA
:1053100038003B6043467B61C223FF337D60BD6044
:10532000FD603E61BD61FD613D627D62BB62FD620B
:105330003D637E63FBF7ACF8002800D0FEE7102346
:10534000119380235B016360802321005B0538009B
:10535000A360FBF743F9002800D0FEE712232100E9
:1053600038002360FBF73AF9002800D0FEE78B4DA8
:105370008B4BA8602B608B4B28616861A861E8614A
:10538000286228006B60EE60FBF776FC002800D0F6
:10539000FEE700212800FBF7D1FE002800D0FEE741
:1053A00000212800FBF7F8FE002800D0FEE77E4B26
:1053B0007E4FDA68072A25D10AAB99467C487D4B97
:1053C0000122036080235B05436080235B048360CC
:1053D0000023C3604361036243628362C36270332C
:1053E000036380238026DB004363813B0261B601B7
:1053F0009F32FF3B8661C2618363FEF799FD0028FF
:105400000FD0FEE73B607F237860BB60386180335C
:105410007861B8613800FB60FDF7D8FE002812D033
:10542000FEE7654D654BA8602B6018236B60DD338C
:10543000FF3328616861A8612800EB60FEF71CF962
:1054400000280DD0FEE720706070A070E060206141
:10545000012221003800FDF72DFF00280BD0FEE7C8
:10546000802306A95B0128009A460693FEF788FB75
:1054700000280CD0FEE7524B01220A930AAB190018
:1054800038009946FEF71CF8002897D0FEE7280060
:10549000FEF776F9002800D0FEE70490059004A9F5
:1054A0002800FEF7E5FC002800D0FEE760234A460E
:1054B0000A939A339060D06010615061906153609C
:1054C000494600222800FEF735FA002800D0FEE702
:1054D00011906060A060E0602061A0612100280060
:1054E0006661FEF7E5FC002800D0FEE78023354E1C
:1054F000DB053360344BB0607360FA233061DB004E
:10550000B0613000F360FEF7B7F8002800D0FEE786
:105510004B465246494630001A60FEF731FB0028E0
:1055200000D0FEE73000FEF72BF9002800D0FEE7A0
:10553000002306A9300006930793FEF799FC002884
:1055400000D0FEE760231193FA23A0609B00206146
:1055500008222100300099466360FEF7EBF900282D
:1055600000D0FEE70C2221003000FEF7E3F900280E
:105570002CD0FEE70D0500200E040020740400204E
:10558000001002400008004800040048F8F3000042
:1055900000140048C004002000240140AC03002097
:1055A000005400405D3E30200028004010040020E0
:1055B000100500200040024034040020002C01406F
:1055C000010101007C04002080BB0000300000F0DD
:1055D00033F900F0E7F9FFF7B7FC01222D4B042166
:1055E0001A702D480022FBF7CDF94846FAF73EFF26
:1055F0002A4B002699462A4B9A462A4B9B462A4B11
:105600001B78002B32D1294B1B78002B0DD0284B57
:105610001A78531E452B05D89300D318254A1380BA
:105620002A685363214B1E70E9E7234B1B78002B3C
:1056300011D0224B224A19880B000A3B9BB293429D
:1056400006D82048FAF7F6FD1F4B18802B689862A1
:10565000194B1E70D3E71D4A1278002ACFD01C4A7E
:105660001C4912780A70144A1370C8E74B461B781D
:105670000122237053461B78210063705B461B7820
:105680003800A3701823E370FDF714FE064B1E705C
:10569000B5E7C0460C040020000400480D040020BB
:1056A0000E0500200C0500200D0500200E04002032
:1056B00076040020780400207404002050050020A7
:1056C000DE030000C05D000030040020BC040020A8
:1056D000A8030020A1030020FEE7C0460120134BD1
:1056E00000B5996983B0014399619A6902400092BB
:1056F000009A8022D96952051143D961DB690021E2
:105700001A40019206380022019BFAF7F1FF0220AD
:10571000002200214042FAF7EBFF01200022002185
:105720004042FAF7E5FF03B000BDC046001002405A
:10573000084B026882B09A4201D002B070478023C1
:10574000054A9B0091691943916192691340019345
:10575000019BF2E7002401400010024000B5114B0C
:10576000026887B09A4201D007B000BDC023DB00B9
:105770000193122390200293113B0393023304936D
:1057800001A90133C0050593FBF722F88023064ADF
:105790009B03D1691943D161D26913400093009BE7
:1057A000E2E7C0460054004000100240054B02688A
:1057B0009A4200D070478021034A0902136A0B43C2
:1057C0001362F7E7002800400010024000B50368AC
:1057D000174A83B093420FD08022D205934201D062
:1057E00003B000BD0120134AD1690143D161D369DF
:1057F00003400193019BF3E780230E4A1B0191694B
:105800000D201943916192690021134000930022F9
:10581000009BFAF76DFF0D20FAF79EFF0022002192
:105820000E20FAF765FF0E20FAF796FFD8E7C0467C
:10583000002C014000100240802300B5026887B0B0
:10584000DB059A4201D007B000BDC0231B01002236
:105850000193022301A90448029303920492059341
:10586000FAF7B6FFEFE7C04600040048F0B51F4B5B
:10587000026887B09A4201D007B0F0BD80231C4A6D
:105880005B0451699020194351615269002413400F
:10589000009303250226009B702301A9C0050193F4
:1058A0000296039404940595FAF792FF90208023C2
:1058B000122701A9C005019302970394049405954A
:1058C000FAF786FF012301A90A480193029703947E
:1058D00004940595FAF77CFF01A906480196029603
:1058E000039404940595FAF773FFC5E7004002405E
:1058F00000100240000400487047C046FEE7C04662
:105900007047C0467047C04610B5FAF7A1FDFAF7D8
:105910005BFF10BD10B50248FEF7FEF910BDC04692
:105920003404002010B50248FEF7F6F910BDC04659
:105930003404002010B50248FCF7B2FA10BDC0468E
:10594000480F00200121114B1A680A431A60586859
:105950000F4A02405A6018680E4A02401A601868DE
:105960000D4A02401A6058680C4A02400F205A60E3
:10597000DA6A8243DA62186B094A02401A635A6B88
:105980008A435A6300229A607047C0460010024062
:105990000CB8FF08FFFFF6FEFFFFFBFFFFFFC0FF95
:1059A0002CFEFFFF10B5094C002209492000FEF72C
:1059B000AFFC08492000FEF7C5FC07492000FEF7B0
:1059C0006BFC2000FEF7C8FC10BDC046540500204B
:1059D00040010020D800002018010020002070475E
:1059E0000020704710B5064C002206492000FEF743
:1059F0005DFC05492000FEF765FC002010BDC04697
:105A000054050020600B00207807002070B50400CA
:105A10001E4D01002800FEF755FC2800FEF75AFC39
:105A20002378FF2B01D0002070BD6378FF2BFAD1C3
:105A3000A378FF2BF7D1E378022B0BD011D9032BDE
:105A400017D0042BEFD12279114B1A700122114B80
:105A50001A70E8E72279104B1A8001220F4B1A7056
:105A6000E1E7012BDFD10E4A217911700D4A137045
:105A7000D9E722790C4B1A7062790C4B1A70A27913
:105A80000B4B1A7001220B4B1A70CCE75405002007
:105A9000A8030020BC04002050050020740400204E
:105AA000760400200E0400200D0400200E050020C6
:105AB0000C0500200D05002000B50D4B026883B0D9
:105AC0009A4201D003B000BD80230A4A1B04D16969
:105AD0001F201943D161D269002113400193002294
